:020000040800F2
:1000000000500020C5130008B5120008B712000800
:10001000B9120008BB120008BD1200080000000061
:10002000000000000000000000000000BF120008F7
:10003000C112000800000000C3120008C512000829
:100040000D1400080D1400080D1400080D1400080C
:100050000D1400080D1400080D1400080D140008FC
:100060000D1400080D1400080D1400080D140008EC
:100070000D1400080D1400080D1400080D140008DC
:100080000D1400080D1400080D1400080D140008CC
:100090000D1400080D1400080D1400080D140008BC
:1000A0000D1400080D1400080D1400080D140008AC
:1000B0000D1400080D1400080D1400080D1400089C
:1000C0000D1400080D1400080D1400080D1400088C
:1000D0000D1400080D1400080D1400080D1400087C
:1000E0000D1400080D1400080D1400080000000095
:1000F0000000000000000000000000000000000000
:0C01000000000000000000005FF808F1A3
:10010C0010B5054C237833B9044B13B10448AFF345
:10011C0000800123237010BD1C0000200000000093
:10012C007814000808B5034B1BB103490348AFF31F
:10013C00008008BD0000000020000020781400089A
:10014C0038B50E4B054618784FF47A73B3FBF0F3C1
:10015C000B4A1068B0FBF3F000F09AF8044658B95B
:10016C000F2D09D8024629464FF0FF3000F04EF80B
:10017C00044B20461D6038BD012038BD0000002016
:10018C001800002004000020074A08B5136803205B
:10019C0043F01003136000F01BF80020FFF7D0FFB2
:1001AC0001F060F8002008BD00200240034A044B17
:1001BC0011681B780B441360704700BF3800002097
:1001CC0000000020014B1868704700BF3800002069
:1001DC00C31E042B10B5044603D9A221094801F013
:1001EC0040F8094A2402D36804F4E06423F4E06381
:1001FC001B041B0C43F0BF6343F400331C43D4605B
:10020C0010BD00BFA014000800ED00E00F2A70B56F
:10021C0004460E46154603D9BA211A4801F021F8B6
:10022C000F2E03D9BB21174801F01BF8164B0120E8
:10023C00D968C1F30221C1F107030A1D042B28BFA1
:10024C000423062A94BF0021033900FA03F2013A71
:10025C008840324001388A400540002C42EA0502B1
:10026C004FEA0212AFBF04F16044084B04F00F04D4
:10027C00D2B2A5BFD2B204F561441A5584F800235A
:10028C0070BD00BFA014000800ED00E014ED00E00C
:10029C000138B0F1807F0AD2F021064B064A586033
:1002AC0082F823100020072298601A607047012002
:1002BC00704700BF10E000E000ED00E02DE9F04FCA
:1002CC00AA4A85B0904204468B46019213D002F59F
:1002DC00806290420FD002F5806290420BD002F502
:1002EC008062904207D002F58062904203D0CD210B
:1002FC009F4800F0B6FFDBF8002091B211B1120C50
:10030C0012041AB1CE219A4800F0ABFFDBF804209E
:10031C00032A17D9A2F11101012913D9954822F406
:10032C00001181420ED000F5801082420AD0A0F557
:10033C007020814206D090498A4203D0CF218C484C
:10034C0000F08FFF0025A846DFF844A28B4E012257
:10035C00DBF8007002FA08F909EA0707B94540F022
:10036C008F80019B9C4211D085498C420ED0854BCD
:10037C009C420BD001F500618C4207D001F58061E5
:10038C008C4203D0DD217A4800F06BFFDBF80410BF
:10039C00122900F0D38000F28D80022900F0C18078
:1003AC0077D8002900F09380012900F0AE80FF2F50
:1003BC0082BF08F1804EAEF1080E4FEA8E014FF06D
:1003CC000F0E9DBF204622684FEA880162680EFA24
:1003DC0001FC22EA0C0205FA01F188BF201D114331
:1003EC000160DBF80400C3004AD5DAF8182028F0C5
:1003FC00030142F00102CAF81820DAF8182001F1C2
:10040C00804102F00102039201F5803108F0030CE7
:10041C00019B039A4FEA8C0C8A680EFA0CFE9C42E4
:10042C0022EA0E0E00F09B80554A944200F099800F
:10043C00544B9C4200F0978002F50062944214BF2A
:10044C000422032202FA0CF242EA0E028A6032689B
:10045C00C1034CBF3A43BA433260726883034CBF4A
:10046C003A43BA437260B268C1024CBF3A43BA43D2
:10047C00B260F26883024CBF174322EA0707F760A9
:10048C0008F10108B8F1100F7FF461AF05B0BDE8B9
:10049C00F08F03295FD0112989D1DBF80C20013AA8
:1004AC00022A03D9EC21324800F0DBFEDBF80C50B9
:1004BC0004357CE73448814209D01CD8A0F5801063
:1004CC00814204D000F5803081427FF470AFDBF8BC
:1004DC000810022904D940F20711254800F0C1FE8A
:1004EC00DBF80810C9B301290CBFC4F81090C4F88C
:1004FC00149008255BE725488142E8D000F5803050
:10050C008142E4D0A0F58010DEE7DBF80C20013A44
:10051C00022A03D9E521164800F0A3FEDBF80C50A3
:10052C0045E7DBF80C20013A022A03D9F3211048E5
:10053C0000F097FEDBF80C50083538E7DBF80C20A0
:10054C00013A022A03D9FA21094800F08AFEDBF8A5
:10055C000C500C352BE7002529E7042527E7002252
:10056C0070E701226EE702226CE700BF0008014031
:10057C00DB140008000011100000221000040140E0
:10058C00000C01400010014000002110000031104F
:10059C000010024070B5054616460C4621B940F2D3
:1005AC00E311084800F05DFE012E06D94FF4F271FC
:1005BC00044800F056FE2C6170BD002EFBD12404C3
:1005CC00F9E700BFDB14000838B505460C4621B925
:1005DC0040F2F911034800F044FEEB685C40EC601B
:1005EC0038BD00BFDB1400082DE9F341044620B9E7
:1005FC004FF4B871A54800F034FE236833B11A07E4
:10060C0004D140F27111A14800F02BFE2368DB07E6
:10061C0018D423689F0772D42368190700F1B98096
:10062C0023685A0700F1EB80E369022B04D940F2EE
:10063C00B921964800F015FEE269002A40F05E816F
:10064C00002020E0636833F4803207D0B3F5A02F8C
:10065C0004D040F277118D4800F003FE8C4D6B688E
:10066C0003F00C03042B07D06B6803F00C03082B6E
:10067C000CD16B68DE0309D52B689D03C9D5636863
:10068C00002BC6D1012002B0BDE8F0816368B3F540
:10069C00803F10D12B6843F480332B60FFF792FD21
:1006AC0006462B689803B4D4FFF78CFD801B642896
:1006BC00F7D90320E7E79BB92B6823F480332B6031
:1006CC002B6823F480232B60FFF77CFD06462B68F8
:1006DC0099039ED5FFF776FD801B6428F7D9E8E7D0
:1006EC00B3F5A02F2B6803D143F480232B60D1E703
:1006FC0023F480332B602B6823F48023CDE723690C
:10070C00012B04D940F2AB11604800F0AAFD6369DB
:10071C001F2B04D94FF4D6715C4800F0A2FD5C4D40
:10072C006B6813F00C0F07D06B6803F00C03082BED
:10073C0010D16B68DA030DD42B689B0702D52369A3
:10074C00012B9FD12B68626923F0F80343EAC203A3
:10075C002B6061E722694F4B6AB101221A60FFF7E7
:10076C0031FD06462B689F07ECD4FFF72BFD801B51
:10077C000228F7D99DE71A60FFF724FD06462B687F
:10078C0098077FF549AFFFF71DFD801B0228F6D9AE
:10079C008FE7A369012B04D94FF4F6713B4800F0A5
:1007AC0060FDA2693A4D3C4BDAB101221A60FFF7A9
:1007BC0009FD06466B6A9B070DD54FF4FA52374B71
:1007CC001B68B3FBF2F3019300BF019B5A1E01920D
:1007DC00002BF9D124E7FFF7F5FC801B0228E9D99F
:1007EC0067E71A60FFF7EEFC06466B6A9F077FF51A
:1007FC0017AFFFF7E7FC801B0228F6D959E7E3682F
:10080C00012B06D9052B04D040F21B211F4800F008
:10081C0028FD1F4DEB69D80024D40127EB6943F068
:10082C008053EB61EB6903F080530093009B1C4EEB
:10083C003368D90518D5E368012B33D12B6A43F003
:10084C0001032B62FFF7BEFC41F2883680462B6A0F
:10085C009B074CD5002F3FF4E7AEEB6923F0805398
:10086C00EB61E1E60027E2E7336843F48073336021
:10087C00FFF7A8FC80463368DA05DCD4FFF7A2FC4E
:10088C00A0EB08006428F6D913E700BF1415000884
:10089C000010024000004242800442421800002036
:1008AC0000700040ABB92B6A41F2883823F0010389
:1008BC002B622B6A23F004032B62FFF783FC0646A2
:1008CC002B6A9807C6D5FFF77DFC801B4045F7D9EE
:1008DC00EFE6052B2B6A03D143F004032B62ADE743
:1008EC0023F001032B622B6A23F00403A9E7FFF723
:1008FC0069FCA0EB0800B042A9D9DAE6384D6B6868
:10090C0003F00C03082B3FF4BDAE022A354E57D131
:10091C00236A33F4803304D040F2C221324800F011
:10092C00A0FC636A33F4402223F4802110D0B2F58A
:10093C00801F0DD0B2F5001F0AD0B1F5401F07D0B3
:10094C00B3F5601F04D040F2C321274800F089FCA6
:10095C0000233360FFF736FC07462B68990129D436
:10096C00236AB3F5803F0ED1A36833F4003304D06F
:10097C0040F2D9211C4800F074FC6B68A26823F487
:10098C00003313436B60236A616A6A680B4322F479
:10099C00741213436B6001233360FFF713FC04469E
:1009AC002B689A013FF54CAEFFF70CFC001B02289C
:1009BC00F6D97EE6FFF706FCC01B0228CDD978E6F7
:1009CC0000233360FFF7FEFB04462B689B017FF589
:1009DC0037AEFFF7F7FB001B0228F6D969E600BF1C
:1009EC0000100240600042421415000830B5194B4B
:1009FC0087B002AC03F11005224618685968083319
:100A0C0003C2AB421446F7D101238DF80430022304
:100A1C0011498DF805304B6803F00C02082A17D1E8
:100A2C00C3F3834206A80244DB0312F8102C0CD546
:100A3C004B680A48C3F34043504306AA134413F8C7
:100A4C00143CB0FBF3F007B030BD05485043FAE757
:100A5C000248F8E7901400080010024000127A00D7
:100A6C0000093D002DE9F0410E46044620B940F244
:100A7C002E317F4800F0F5FB23681D0704D140F2AE
:100A8C002F317B4800F0EDFB022E04D94FF44C7152
:100A9C00774800F0E6FB774A136803F007039E42A1
:100AAC003DD82368980747D42368DA0770D4714A75
:100ABC00136803F007039E42C0F0B58023686E4DA7
:100ACC0013F0040F40F0BB8023681B0717D5236974
:100ADC0033F480620CD023F40072B2F5A06F07D00F
:100AEC00B3F5C06F04D04FF46E71614800F0B9FBE0
:100AFC006B68226923F4605343EAC2036B60FFF70F
:100B0C0075FF6B685D4AC3F30313D35CD8405C4B31
:100B1C0018600020FFF714FB0020BDE8F08113687B
:100B2C0023F0070333431360136803F007039E425B
:100B3C00B7D00120BDE8F0814F4D13F0040F1EBF5C
:100B4C006A6842F4E0626A60190742BF6B6843F45A
:100B5C0060536B60A36833F0800212D023F0200244
:100B6C00902A0ED023F04002A02A0AD023F01002C3
:100B7C00C02A06D0F02B04D040F256313C4800F08D
:100B8C0070FB6B68A26823F0F00313436B608BE778
:100B9C006368022B04D940F25D31354800F061FBEB
:100BAC006268354D012A2B681DD113F4003FC0D06B
:100BBC006B6841F2883823F0030313436B60FFF733
:100BCC0001FB63680746012B15D16B6803F00C031E
:100BDC00042B3FF46CAFFFF7F5FAC01B4045F4D97A
:100BEC000320BDE8F081022A02D113F0007FDEE77A
:100BFC0013F0020FDBE7022B10D16B6803F00C0330
:100C0C00082B3FF454AFFFF7DDFAC01B4045F4D975
:100C1C00E6E7FFF7D7FAC01B4045E1D86B6813F045
:100C2C000C0FF6D143E7136823F00703334313602B
:100C3C00136803F007039E427FF47BAF3EE7E36843
:100C4C0033F480620CD023F40072B2F5A06F07D09D
:100C5C00B3F5C06F04D040F2B131054800F001FB90
:100C6C006B68E26823F4E06313436B602CE700BF0E
:100C7C0014150008002002400010024085150008E1
:100C8C0018000020044B054A5B68C3F30223D35CB5
:100C9C00034A1068D84070470010024095150008B0
:100CAC0018000020044B054A5B68C3F3C223D35CD5
:100CBC00034A1068D8407047001002409515000890
:100CCC00180000204268654B2DE9F0479A42814696
:100CDC0004D940F6A711624800F0C3FAD9F80C30D9
:100CEC0033F4005304D040F6A8115D4800F0B9FA73
:100CFC00D9F8103033F4806207D0B3F5C06F04D04C
:100D0C0040F6A911564800F0ACFA4FF6F372D9F838
:100D1C001430134200D123B940F6AA11504800F008
:100D2C00A0FAD9F80050D9F80C202B69D9F810107A
:100D3C0023F4405313432B61D9F80830EA680B4372
:100D4C00D9F8141022F4B05222F00C020B431343C6
:100D5C00EB606B69D9F8182023F4407313436B6173
:100D6C00404B19249D4246D1FFF79CFF04FB00F336
:100D7C00D9F804604FF06408B600B3FBF6F3B3FB8C
:100D8C00F8F31E01FFF78EFF6043D9F804309B0087
:100D9C00B0FBF3F7FFF786FF6043D9F804309B00F4
:100DAC00B0FBF3F3B3FBF8F308FB13731B01323303
:100DBC00B3FBF8F303F0F007FFF774FF6043D9F8C7
:100DCC0004209200B0FBF2FAFFF76CFF6043D9F8F5
:100DDC0004309B00B0FBF3F3B3FBF8F308FB13A355
:100DEC001B013233B3FBF8F303F00F033B433344E3
:100DFC00AB60BDE8F087FFF745FF04FB00F3D9F8C3
:100E0C0004604FF06408B600B3FBF6F3B3FBF8F3E1
:100E1C001E01FFF737FF6043D9F804309B00B0FB8D
:100E2C00F3F7FFF72FFF6043D9F804309B00B0FBBA
:100E3C00F3F3B3FBF8F308FB13731B013233B3FB6F
:100E4C00F8F303F0F007FFF71DFF6043D9F8042017
:100E5C009200B0FBF2FAFFF715FFB7E720AA4400A7
:100E6C004C15000800380140F8B504460E461746EC
:100E7C001D4621680B6836EA030301D10020F8BD3A
:100E8C006B1CF7D095B923680320DA6822F4D07272
:100E9C00DA605A6922F001025A61202384F8393051
:100EAC0084F83A30002384F83830F8BDFFF78AF91B
:100EBC00C01B8542DDD2E6E710B5044600285BD0A6
:100ECC00816903682D4A00294AD093420CD0A2F5BF
:100EDC007442934208D002F58062934204D040F2EF
:100EEC000F11274800F0BDF9A36933F4407304D007
:100EFC004FF48871224800F0B4F9A36833F480539E
:100F0C0004D04FF48B711E4800F0ABF994F83930D3
:100F1C0003F0FF0223B984F83820204600F010FAC1
:100F2C002423226884F83930D368204623F40053F4
:100F3C00D360FFF7C7FE236800201A6922F49042A1
:100F4C001A615A6922F02A025A61DA6842F4005294
:100F5C00DA602023E06384F8393084F83A3010BD2D
:100F6C009342CAD0074A9342C7D002F5806293429B
:100F7C00C3D04FF48A71BDE7012010BD0038014089
:100F8C004C150008004400402DE9F0411F4690F834
:100F9C0039300446202B0D4690464ED1002949D0BD
:100FAC00002A47D090F83830012B46D0012380F826
:100FBC0038300023C363212380F83930FFF702F95E
:100FCC000646A4F82480A4F82680E38C9BB26BB967
:100FDC003B46324640212046FFF746FFA8B9202366
:100FEC0084F8380084F83930BDE8F081E38C32465F
:100FFC00013B9BB2E384A3688021B3F5805F20465C
:10100C003B460ED1FFF730FF10B10320BDE8F08155
:10101C002B882268C3F308035360236943B9023554
:10102C00D3E7FFF721FF0028EFD123682A785A6015
:10103C000135CAE70120BDE8F0810220BDE8F0814E
:10104C002DE9F0411F4690F83A300446202B0D460E
:10105C00904651D100294CD0002A4AD090F8383013
:10106C00012B49D0012380F838300023C36322239D
:10107C0080F83A30FFF7A6F80646A4F82C80A4F8BE
:10108C002E80E08D80B230B9202384F8380084F8AB
:10109C003A30BDE8F081E38D3246013B9BB2E385EB
:1010AC00A3682021B3F5805F20463B4612D1FFF7A1
:1010BC00DBFE10B10320BDE8F081236822695B6878
:1010CC0022B9C3F3080325F8023BDAE7DBB225F8B3
:1010DC00013BD6E7FFF7C8FE0028EBD12368216956
:1010EC006A1C5B6811B92B701546CAE703F07F03C5
:1010FC00F9E70120BDE8F0810220BDE8F081000095
:10110C0010B50F4C4FF0FF33032221460D48FFF76B
:10111C0097FF2378792B11D14FF0FF3306220A4920
:10112C000848FFF731FF4FF400510848FFF74CFA1D
:10113C002046BDE81040064900F090B910BD00BF34
:10114C003C000020400000200F0000200010014057
:10115C004B15000810B50B4C23786E2B11D14FF4A6
:10116C0000510948FFF730FA08494FF0FF330722C6
:10117C000748FFF709FF2046BDE81040054900F07D
:10118C006DB910BD3C00002000100140080000208B
:10119C00400000204B15000810B586B0102200212D
:1011AC0002A800F053F9144B144C9A69204642F0F3
:1011BC0010029A619A694FF4005102F010020092E9
:1011CC00009A9A6942F004029A619B69002203F02A
:1011DC0004030193019BFFF7DDF94FF400530293D5
:1011EC000123039300230493022302A920460593B1
:1011FC00FFF764F806B010BD00100240001001406B
:10120C0000B591B02822002106A800F01FF9142285
:10121C00002101A800F01AF90223069301230A9376
:10122C00102306A80B93FFF7DFF900210F2301A869
:10123C0001930291039104910591FFF713FC11B0F6
:10124C005DF804FB08B5FEF79FFFFFF7D9FFFFF72A
:10125C00A3FF00F059F8FFF77DFFFFF751FFFAE706
:10126C00704770470E4B82B09A6942F001029A6146
:10127C009A6902F001020092009ADA6942F08052F7
:10128C00DA61DB69074A03F080530193019B5368D1
:10129C0023F0E06343F08063536002B0704700BFFB
:1012AC0000100240000001407047FEE7FEE7FEE739
:1012BC00FEE7704770477047FEF778BF0F4B1A6810
:1012CC0042F001021A6059680D4A0A405A601A68C5
:1012DC0022F0847222F480321A601A6822F480227E
:1012EC001A605A6822F4FE025A604FF41F029A6088
:1012FC004FF00062034B9A60704700BF0010024031
:10130C000000FFF800ED00E008B54FF4165E0A4847
:10131C000A4B0C2280E80840002342618360C360C2
:10132C0003618361C361FFF7C7FD18B1BDE80840D5
:10133C00FFF796BF08BD00BF4000002000380140F9
:10134C0010B5044686B01022002102A800F07EF8E9
:10135C002268174B9A4228D103F558439A6902A97F
:10136C0042F480429A619A69124802F480420092D7
:10137C00009A9A6942F004029A619B6903F0040393
:10138C000193019B4FF400730293022303930323F5
:10139C000593FEF793FF4FF480630293002302A999
:1013AC00044803930493FEF789FF06B010BD00BFF9
:1013BC000038014000080140002103E00B4B5B5852
:1013CC00435004310A480B4B42189A42F6D30A4A4E
:1013DC0002E0002342F8043B084B9A42F9D3FFF792
:1013EC006DFF00F00FF8FFF72DFF7047A8150008F0
:1013FC00000000201C0000201C00002080000020A9
:10140C00FEE7000070B500250C4E0D4CA41BA4107B
:10141C00A54209D100F02AF800250A4E0A4CA41B5B
:10142C00A410A54205D170BD56F82530984701355A
:10143C00EEE756F8253098470135F2E7A01500087D
:10144C00A0150008A0150008A415000803460244C6
:10145C00934200D1704703F8011BF9E7034611F8DA
:10146C00012B03F8012B002AF9D17047F8B500BF06
:10147C00F8BC08BC9E467047F8B500BFF8BC08BC69
:04148C009E467047C1
:1014900002030405060708090A0B0C0D0E0F1010B5
:1014A0002E2E2F447269766572732F53544D33324A
:1014B000463178785F48414C5F4472697665722F97
:1014C0005372632F73746D3332663178785F68615D
:1014D0006C5F636F727465782E63002E2E2F4472DA
:1014E00069766572732F53544D3332463178785F85
:1014F00048414C5F4472697665722F5372632F7353
:10150000746D3332663178785F68616C5F677069DB
:101510006F2E63002E2E2F447269766572732F53DF
:10152000544D3332463178785F48414C5F4472699C
:101530007665722F5372632F73746D333266317810
:10154000785F68616C5F7263632E63002E2E2F4498
:101550007269766572732F53544D33324631787801
:101560005F48414C5F4472697665722F5372632FF6
:1015700073746D3332663178785F68616C5F756162
:1015800072742E63000000000000000000010203DE
:10159000040607080900000000010203040000001F
:0415A000310100080D
:0415A4000D0100082D
:1015A80001000000100000004C4544206F66664CA6
:0C15B8004544206F6E00000000A24A04B1
:04000005080013C517
:00000001FF
