:020000040800F2
:1000000000500020311E0008211D0008231D00089B
:10001000251D0008271D0008291D000800000000FC
:100020000000000000000000000000002B1D000880
:100030002D1D0008000000002F1D0008311D0008C4
:10004000791E0008791E0008791E0008791E000834
:10005000791E0008791E0008791E0008791E000824
:10006000791E0008791E0008791E0008791E000814
:10007000791E0008791E0008791E0008791E000804
:10008000791E0008791E0008791E0008791E0008F4
:10009000791E0008791E0008791E0008791E0008E4
:1000A000791E0008791E0008791E0008791E0008D4
:1000B000791E0008791E0008791E0008791E0008C4
:1000C000791E0008791E0008791E0008791E0008B4
:1000D000791E0008791E0008791E0008791E0008A4
:1000E000791E0008791E0008791E00080000000033
:1000F0000000000000000000000000000000000000
:0C01000000000000000000005FF808F1A3
:10010C0010B5054C237833B9044B13B10448AFF345
:10011C0000800123237010BD24000020000000008B
:10012C00E41E000808B5034B1BB103490348AFF3A9
:10013C00008008BD0000000028000020E41E00081C
:10014C0038B50E4B054618784FF47A73B3FBF0F3C1
:10015C000B4A1068B0FBF3F000F09AF8044658B95B
:10016C000F2D09D8024629464FF0FF3000F04EF80B
:10017C00044B20461D6038BD012038BD0000002016
:10018C002000002004000020074A08B51368032053
:10019C0043F01003136000F01BF80020FFF7D0FFB2
:1001AC0001F096FD002008BD00200240034A044BDC
:1001BC0011681B780B441360704700BF4804002083
:1001CC0000000020014B1868704700BF4804002055
:1001DC00C31E042B10B5044603D9A221094801F013
:1001EC00E4FB094A2402D36804F4E06423F4E063DA
:1001FC001B041B0C43F0BF6343F400331C43D4605B
:10020C0010BD00BF0C1F000800ED00E00F2A70B5F8
:10021C0004460E46154603D9BA211A4801F0C5FB0F
:10022C000F2E03D9BB21174801F0BFFB164B012041
:10023C00D968C1F30221C1F107030A1D042B28BFA1
:10024C000423062A94BF0021033900FA03F2013A71
:10025C008840324001388A400540002C42EA0502B1
:10026C004FEA0212AFBF04F16044084B04F00F04D4
:10027C00D2B2A5BFD2B204F561441A5584F800235A
:10028C0070BD00BF0C1F000800ED00E014ED00E095
:10029C000138B0F1807F0AD2F021064B064A586033
:1002AC0082F823100020072298601A607047012002
:1002BC00704700BF10E000E000ED00E02DE9F04FCA
:1002CC00AA4A85B0904204468B46019213D002F59F
:1002DC00806290420FD002F5806290420BD002F502
:1002EC008062904207D002F58062904203D0CD210B
:1002FC009F4801F05AFBDBF8002091B211B1120CAF
:10030C0012041AB1CE219A4801F04FFBDBF80420FD
:10031C00032A17D9A2F11101012913D9954822F406
:10032C00001181420ED000F5801082420AD0A0F557
:10033C007020814206D090498A4203D0CF218C484C
:10034C0001F033FB0025A846DFF844A28B4E0122B6
:10035C00DBF8007002FA08F909EA0707B94540F022
:10036C008F80019B9C4211D085498C420ED0854BCD
:10037C009C420BD001F500618C4207D001F58061E5
:10038C008C4203D0DD217A4801F00FFBDBF804101E
:10039C00122900F0D38000F28D80022900F0C18078
:1003AC0077D8002900F09380012900F0AE80FF2F50
:1003BC0082BF08F1804EAEF1080E4FEA8E014FF06D
:1003CC000F0E9DBF204622684FEA880162680EFA24
:1003DC0001FC22EA0C0205FA01F188BF201D114331
:1003EC000160DBF80400C3004AD5DAF8182028F0C5
:1003FC00030142F00102CAF81820DAF8182001F1C2
:10040C00804102F00102039201F5803108F0030CE7
:10041C00019B039A4FEA8C0C8A680EFA0CFE9C42E4
:10042C0022EA0E0E00F09B80554A944200F099800F
:10043C00544B9C4200F0978002F50062944214BF2A
:10044C000422032202FA0CF242EA0E028A6032689B
:10045C00C1034CBF3A43BA433260726883034CBF4A
:10046C003A43BA437260B268C1024CBF3A43BA43D2
:10047C00B260F26883024CBF174322EA0707F760A9
:10048C0008F10108B8F1100F7FF461AF05B0BDE8B9
:10049C00F08F03295FD0112989D1DBF80C20013AA8
:1004AC00022A03D9EC21324801F07FFADBF80C5018
:1004BC0004357CE73448814209D01CD8A0F5801063
:1004CC00814204D000F5803081427FF470AFDBF8BC
:1004DC000810022904D940F20711254801F065FAE9
:1004EC00DBF80810C9B301290CBFC4F81090C4F88C
:1004FC00149008255BE725488142E8D000F5803050
:10050C008142E4D0A0F58010DEE7DBF80C20013A44
:10051C00022A03D9E521164801F047FADBF80C5002
:10052C0045E7DBF80C20013A022A03D9F3211048E5
:10053C0001F03BFADBF80C50083538E7DBF80C20FF
:10054C00013A022A03D9FA21094801F02EFADBF804
:10055C000C500C352BE7002529E7042527E7002252
:10056C0070E701226EE702226CE700BF0008014031
:10057C00471F000800001110000022100004014069
:10058C00000C01400010014000002110000031104F
:10059C000010024070B5054616460C4621B940F2D3
:1005AC00E311084801F001FA012E06D94FF4F2715B
:1005BC00044801F0FAF92C6170BD002EFBD1240423
:1005CC00F9E700BF471F000838B505460C4621B9AE
:1005DC0040F2F911034801F0E8F9EB685C40EC607B
:1005EC0038BD00BF471F00080268536913F48063CD
:1005FC000DD06FF480635361042320220364002325
:10060C00036380F83C3080F83D2001207047184689
:10061C0070472DE9F843044617469946C1F307483D
:10062C008EB22568B8F1010F0CBF6B69AB6936EA65
:10063C00030314BF0120002008B9BDE8F8836B69DF
:10064C005A0512D52B68202243F400732B606FF4EB
:10065C0080636B610423236400230120236384F8EB
:10066C003C3084F83D20BDE8F8837B1CD9D04FB9D1
:10067C0000232022236384F83C3084F83D2003209F
:10068C00BDE8F883FFF79EFDA0EB09008742C8D2B6
:10069C00EEE72DE9F843044690461F46089EC1F349
:1006AC0007498DB22368B9F1010F0CBF5B699B69D7
:1006BC0035EA03030CBF01230023434502D000207D
:1006CC00BDE8F8837B1CEDD05FB9002320222363A7
:1006DC0084F83C3084F83D20032084F83E30BDE89B
:1006EC00F883FFF76FFD801B8742DBD2EDE770B517
:1006FC0004460D46164623685B691B0601D500208F
:10070C0070BD2046FFF770FFA8B96A1CF3D065B91D
:10071C00236C202243F02003236400230320236353
:10072C0084F83C3084F83D2070BDFFF74BFD801BF6
:10073C008542E0D2ECE7012070BD70B504460D4651
:10074C00164623685B695B0701D5002070BD204607
:10075C00FFF74AFFA8B96A1CF3D065B9236C2022B5
:10076C0043F02003236400230320236384F83C30EC
:10077C0084F83D2070BDFFF725FD801B8542E0D23B
:10078C00ECE7012070BD000038B5044608B9012023
:10079C0038BD0368654A934208D002F580629342E3
:1007AC0004D040F27D11624801F0FFF86368614AA1
:1007BC00013B934204D94FF4BF715D4801F0F5F849
:1007CC00A36833F4804304D040F27F11584801F001
:1007DC00ECF8E36823F47F7323F0030323B14FF4A5
:1007EC00C071534801F0E1F8236923F40043B3F5D9
:1007FC00804F04D040F281114D4801F0D6F8636966
:10080C00012B04D94FF4C171494801F0CEF8A3690A
:10081C0033F0FE0304D040F28311454801F0C5F8D3
:10082C00E36933F0400304D04FF4C271404801F047
:10083C00BCF8236A33F0800304D040F285113C48A5
:10084C0001F0B3F894F83D3003F0FF0223B984F8BB
:10085C003C20204601F026F82423226884F83D3001
:10086C00136823F00103136000F042FD6368324A01
:10087C00934230D8314A904289D9314A2168B0FB31
:10088C00F2F24A6001320A622B4A0138934233D8A1
:10089C005B00B0FBF3F0431CC3F30B03042B38BF1A
:1008AC000423CB61226AE369002013430B60E268E6
:1008BC00236913438B60A26963691343CB600B6894
:1008CC0043F001030B602023206484F83D30206347
:1008DC0084F83E0038BD1B4A90427FF658AF184D45
:1008EC004FF49672B0FBF5F521686A434D604FF4F6
:1008FC007A75B2FBF5F2C5E7A26852B903EB430374
:10090C00B0FBF3F0431CC3F30B036BB143F4004394
:10091C00C7E719225343B0FBF3F0431CC3F30B039B
:10092C0013B143F44043BCE70123BAE70054004041
:10093C00801F00087F1A0600A08601007F841E001D
:10094C0040420F00FF083D002DE9FF4104461F46C1
:10095C000D469046FFF736FC94F83D300646202BAA
:10096C0004D00225284604B0BDE8F081009019237C
:10097C0001225D492046FFF78CFE0028F1D194F846
:10098C003C30012BEDD0012384F83C3023681A68ED
:10099C00D2075EBF1A6842F001021A601A6822F48C
:1009AC0000621A60212284F83D20102284F83E2037
:1009BC0000222264A2F580326785E262628DC4F85F
:1009CC0024802285E26A042A04D0012A02D012F57E
:1009DC00803F04D11A6842F480721A6002E0226BE4
:1009EC00122AF7D000960A9B00224FF001112046E4
:1009FC00FFF74FFE28BB23692268B3F5804F12D155
:100A0C0005F0FE05156133460A9A38492046FFF772
:100A1C0000FE0546A0B9236803905A6903929B69AE
:100A2C000393039B50E0EB1103F0060343F0F00338
:100A3C0013612F4933460A9A2046FFF7EAFD48B165
:100A4C00236C236C042B4FF0000307D184F83C304B
:100A5C00012587E72368EDB21D61D4E784F83C30AB
:100A6C0003257FE732460A992046FFF740FE40B146
:100A7C00236C042BF4D12268136843F400731360C5
:100A8C00E6E7616A20684B1C63620B78228D036178
:100A9C00638D013B9BB263854769531E9BB27F07F5
:100AAC0023850AD54BB18B1C63624B78023A0361E8
:100ABC00638D2285013B9BB2638532460A992046A1
:100ACC00FFF73BFE0028D3D1238D002BCAD1216820
:100ADC000A6842F400720A60202284F83C3084F8E0
:100AEC003D2084F83E303DE702001000020001007A
:100AFC00080001002DE9F04F044685B09846894660
:100B0C009246FFF75FFB94F83D300646202B03D04E
:100B1C00022005B0BDE8F08F0090192301224B494B
:100B2C002046FFF7B6FD0028F2D194F83C30012B9B
:100B3C00EED0012384F83C30236800251A68DFF8D6
:100B4C000CB1D20758BF1A6809F0FE095CBF42F01D
:100B5C0001021A601A6822F400621A60242384F8D5
:100B6C003D303B4B2564E36222684FF00111136862
:100B7C00204643F480731360009643460022FFF72F
:100B8C0088FD08B10320C4E72368A027C3F81090A0
:100B9C00FFF718FB0646236859695A6994F83D30EB
:100BAC00C1F34001C2F38022DBB211B90AB9A02B08
:100BBC0020D12027236884F83D705A6912F0020F67
:100BCC001A6842F400721A602AD0002203925A6901
:100BDC001E4903929B6901220393039B00961923E0
:100BEC002046FFF756FD0028CCD184F83D7084F8E0
:100BFC003C008EE7B8F1000F0CD184F83D702368EF
:100C0C0059695A6994F83D30C1F34001C2F380220E
:100C1C00DBB2CAE7FFF7D6FA801B8045EDD3EEE7CF
:100C2C006FF4806259465A612046009619230122BE
:100C3C00FFF72FFD0028A5D10135AA4594D884F8DB
:100C4C003C0084F83D70012063E700BF02001000F7
:100C5C000000FFFF2DE9F341044620B94FF4B871B1
:100C6C00A54800F0A2FE236833B11A0704D140F264
:100C7C007111A14800F099FE2368DB0718D4236892
:100C8C009F0772D42368190700F1B98023685A07AB
:100C9C0000F1EB80E369022B04D940F2B9219648AC
:100CAC0000F083FEE269002A40F05E81002020E023
:100CBC00636833F4803207D0B3F5A02F04D040F230
:100CCC0077118D4800F071FE8C4D6B6803F00C03AE
:100CDC00042B07D06B6803F00C03082B0CD16B684A
:100CEC00DE0309D52B689D03C9D56368002BC6D1DB
:100CFC00012002B0BDE8F0816368B3F5803F10D1EC
:100D0C002B6843F480332B60FFF75CFA06462B68A4
:100D1C009803B4D4FFF756FA801B6428F7D9032044
:100D2C00E7E79BB92B6823F480332B602B6823F403
:100D3C0080232B60FFF746FA06462B6899039ED555
:100D4C00FFF740FA801B6428F7D9E8E7B3F5A02F2A
:100D5C002B6803D143F480232B60D1E723F4803339
:100D6C002B602B6823F48023CDE72369012B04D956
:100D7C0040F2AB11604800F018FE63691F2B04D9D8
:100D8C004FF4D6715C4800F010FE5C4D6B6813F0AC
:100D9C000C0F07D06B6803F00C03082B10D16B6899
:100DAC00DA030DD42B689B0702D52369012B9FD145
:100DBC002B68626923F0F80343EAC2032B6061E7F6
:100DCC0022694F4B6AB101221A60FFF7FBF9064604
:100DDC002B689F07ECD4FFF7F5F9801B0228F7D995
:100DEC009DE71A60FFF7EEF906462B6898077FF52A
:100DFC0049AFFFF7E7F9801B0228F6D98FE7A36903
:100E0C00012B04D94FF4F6713B4800F0CEFDA269DA
:100E1C003A4D3C4BDAB101221A60FFF7D3F9064682
:100E2C006B6A9B070DD54FF4FA52374B1B68B3FB1B
:100E3C00F2F3019300BF019B5A1E0192002BF9D1D2
:100E4C0024E7FFF7BFF9801B0228E9D967E71A608E
:100E5C00FFF7B8F906466B6A9F077FF517AFFFF7E8
:100E6C00B1F9801B0228F6D959E7E368012B06D9A2
:100E7C00052B04D040F21B211F4800F096FD1F4D9E
:100E8C00EB69D80024D40127EB6943F08053EB6164
:100E9C00EB6903F080530093009B1C4E3368D9051B
:100EAC0018D5E368012B33D12B6A43F001032B6275
:100EBC00FFF788F941F2883680462B6A9B074CD5A0
:100ECC00002F3FF4E7AEEB6923F08053EB61E1E6D2
:100EDC000027E2E7336843F480733360FFF772F95D
:100EEC0080463368DA05DCD4FFF76CF9A0EB080018
:100EFC006428F6D913E700BFB81F000800100240A1
:100F0C000000424280044242200000200070004059
:100F1C00ABB92B6A41F2883823F001032B622B6AA0
:100F2C0023F004032B62FFF74DF906462B6A980752
:100F3C00C6D5FFF747F9801B4045F7D9EFE6052BDF
:100F4C002B6A03D143F004032B62ADE723F00103BA
:100F5C002B622B6A23F00403A9E7FFF733F9A0EB0C
:100F6C000800B042A9D9DAE6384D6B6803F00C03DF
:100F7C00082B3FF4BDAE022A354E57D1236A33F409
:100F8C00803304D040F2C221324800F00EFD636A77
:100F9C0033F4402223F4802110D0B2F5801F0DD001
:100FAC00B2F5001F0AD0B1F5401F07D0B3F5601F92
:100FBC0004D040F2C321274800F0F7FC0023336033
:100FCC00FFF700F907462B68990129D4236AB3F57A
:100FDC00803F0ED1A36833F4003304D040F2D92102
:100FEC001C4800F0E2FC6B68A26823F40033134346
:100FFC006B60236A616A6A680B4322F474121343B0
:10100C006B6001233360FFF7DDF804462B689A010F
:10101C003FF54CAEFFF7D6F8001B0228F6D97EE65A
:10102C00FFF7D0F8C01B0228CDD978E60023336037
:10103C00FFF7C8F804462B689B017FF537AEFFF726
:10104C00C1F8001B0228F6D969E600BF0010024067
:10105C0060004242B81F000830B5194B87B002AC93
:10106C0003F11005224618685968083303C2AB42D5
:10107C001446F7D101238DF80430022311498DF861
:10108C0005304B6803F00C02082A17D1C3F38342D6
:10109C0006A80244DB0312F8102C0CD54B680A4846
:1010AC00C3F34043504306AA134413F8143CB0FB5B
:1010BC00F3F007B030BD05485043FAE70248F8E7B3
:1010CC00FC1E00080010024000127A0000093D00CE
:1010DC002DE9F0410E46044620B940F22E317F48EE
:1010EC0000F063FC23681D0704D140F22F317B48CC
:1010FC0000F05BFC022E04D94FF44C71774800F0E1
:10110C0054FC774A136803F007039E423DD82368CA
:10111C00980747D42368DA0770D4714A136803F030
:10112C0007039E42C0F0B58023686E4D13F0040F88
:10113C0040F0BB8023681B0717D5236933F480620A
:10114C000CD023F40072B2F5A06F07D0B3F5C06FCA
:10115C0004D04FF46E71614800F027FC6B68226973
:10116C0023F4605343EAC2036B60FFF775FF6B68AF
:10117C005D4AC3F30313D35CD8405C4B186000206A
:10118C00FEF7DEFF0020BDE8F081136823F00703B3
:10119C0033431360136803F007039E42B7D001205A
:1011AC00BDE8F0814F4D13F0040F1EBF6A6842F486
:1011BC00E0626A60190742BF6B6843F460536B606E
:1011CC00A36833F0800212D023F02002902A0ED0B4
:1011DC0023F04002A02A0AD023F01002C02A06D025
:1011EC00F02B04D040F256313C4800F0DEFB6B682B
:1011FC00A26823F0F00313436B608BE76368022B48
:10120C0004D940F25D31354800F0CFFB6268354DB2
:10121C00012A2B681DD113F4003FC0D06B6841F23A
:10122C00883823F0030313436B60FEF7CBFF63682E
:10123C000746012B15D16B6803F00C03042B3FF40C
:10124C006CAFFEF7BFFFC01B4045F4D90320BDE8CF
:10125C00F081022A02D113F0007FDEE713F0020FB7
:10126C00DBE7022B10D16B6803F00C03082B3FF467
:10127C0054AFFEF7A7FFC01B4045F4D9E6E7FEF7D5
:10128C00A1FFC01B4045E1D86B6813F00C0FF6D1E1
:10129C0043E7136823F0070333431360136803F029
:1012AC0007039E427FF47BAF3EE7E36833F4806232
:1012BC000CD023F40072B2F5A06F07D0B3F5C06F59
:1012CC0004D040F2B131054800F06FFB6B68E26866
:1012DC0023F4E06313436B602CE700BFB81F0008D6
:1012EC000020024000100240952D00082000002034
:1012FC00044B054A5B68C3F30223D35C034A1068B2
:10130C00D840704700100240A52D00082000002096
:10131C00044B054A5B68C3F3C223D35C034A1068D1
:10132C00D840704700100240A52D00082000002076
:10133C004268654B2DE9F0479A42814604D940F644
:10134C00A711624800F031FBD9F80C3033F400538C
:10135C0004D040F6A8115D4800F027FBD9F81030F6
:10136C0033F4806207D0B3F5C06F04D040F6A911F6
:10137C00564800F01AFB4FF6F372D9F814301342AA
:10138C0000D123B940F6AA11504800F00EFBD9F851
:10139C000050D9F80C202B69D9F8101023F44053C5
:1013AC0013432B61D9F80830EA680B43D9F81410B1
:1013BC0022F4B05222F00C020B431343EB606B6926
:1013CC00D9F8182023F4407313436B61404B192454
:1013DC009D4246D1FFF79CFF04FB00F3D9F8046053
:1013EC004FF06408B600B3FBF6F3B3FBF8F31E0141
:1013FC00FFF78EFF6043D9F804309B00B0FBF3F786
:10140C00FFF786FF6043D9F804309B00B0FBF3F381
:10141C00B3FBF8F308FB13731B013233B3FBF8F384
:10142C0003F0F007FFF774FF6043D9F80420920033
:10143C00B0FBF2FAFFF76CFF6043D9F804309B0065
:10144C00B0FBF3F3B3FBF8F308FB13A31B0132332C
:10145C00B3FBF8F303F00F033B433344AB60BDE83D
:10146C00F087FFF745FF04FB00F3D9F804604FF059
:10147C006408B600B3FBF6F3B3FBF8F31E01FFF7F9
:10148C0037FF6043D9F804309B00B0FBF3F7FFF74C
:10149C002FFF6043D9F804309B00B0FBF3F3B3FB90
:1014AC00F8F308FB13731B013233B3FBF8F303F0AF
:1014BC00F007FFF71DFF6043D9F804209200B0FB42
:1014CC00F2FAFFF715FFB7E720AA4400F01F000857
:1014DC0000380140F8B504460E4617461D462168F3
:1014EC000B6836EA030301D10020F8BD6B1CF7D062
:1014FC0095B923680320DA6822F4D072DA605A694D
:10150C0022F001025A61202384F8393084F83A30F1
:10151C00002384F83830F8BDFEF754FEC01B85421A
:10152C00DDD2E6E710B5044600285BD0816903687C
:10153C002D4A00294AD093420CD0A2F57442934212
:10154C0008D002F58062934204D040F20F11274874
:10155C0000F02BFAA36933F4407304D04FF4887174
:10156C00224800F022FAA36833F4805304D04FF4DD
:10157C008B711E4800F019FA94F8393003F0FF0211
:10158C0023B984F83820204600F010FC242322686C
:10159C0084F83930D368204623F40053D360FFF726
:1015AC00C7FE236800201A6922F490421A615A6916
:1015BC0022F02A025A61DA6842F40052DA602023DF
:1015CC00E06384F8393084F83A3010BD9342CAD0C5
:1015DC00074A9342C7D002F580629342C3D04FF4BE
:1015EC008A71BDE7012010BD00380140F01F0008D2
:1015FC00004400402DE9F0411F4690F83930044674
:10160C00202B0D4690464ED1002949D0002A47D0B8
:10161C0090F83830012B46D0012380F83830002365
:10162C00C363212380F83930FEF7CCFD0646A4F8BD
:10163C002480A4F82680E38C9BB26BB93B463246DF
:10164C0040212046FFF746FFA8B9202384F8380034
:10165C0084F83930BDE8F081E38C3246013B9BB213
:10166C00E384A3688021B3F5805F20463B460ED10E
:10167C00FFF730FF10B10320BDE8F0812B88226802
:10168C00C3F308035360236943B90235D3E7FFF76B
:10169C0021FF0028EFD123682A785A600135CAE768
:1016AC000120BDE8F0810220BDE8F0812DE9F04178
:1016BC001F4690F83A300446202B0D46904651D1E7
:1016CC0000294CD0002A4AD090F83830012B49D050
:1016DC00012380F838300023C363222380F83A308A
:1016EC00FEF770FD0646A4F82C80A4F82E80E08D41
:1016FC0080B230B9202384F8380084F83A30BDE841
:10170C00F081E38D3246013B9BB2E385A368202137
:10171C00B3F5805F20463B4612D1FFF7DBFE10B1DC
:10172C000320BDE8F081236822695B6822B9C3F30A
:10173C00080325F8023BDAE7DBB225F8013BD6E7D4
:10174C00FFF7C8FE0028EBD1236821696A1C5B688F
:10175C0011B92B701546CAE703F07F03F9E7012096
:10176C00BDE8F0810220BDE8F081000010B50E4C00
:10177C004FF0FF33032221460C48FFF797FF2378E5
:10178C00792B10D14FF0FF33062209490748FFF798
:10179C0031FF02210748FEF717FF2046BDE8104035
:1017AC00054900F091BB10BD4C040020A40400209E
:1017BC000F00002000080140942D000810B50B4CC0
:1017CC0023786E2B10D102210948FEF7FDFE094942
:1017DC004FF0FF3307220848FFF70CFF2046BDE807
:1017EC001040064900F070BB10BD00BF4C04002037
:1017FC000008014008000020A4040020942D0008DB
:10180C0010B586B01022002102A800F055FB134B36
:10181C00134C9A69204642F004029A619A6902219B
:10182C0002F004020092009A9A6942F008029A614E
:10183C009B69002203F008030193019BFEF7AAFEAB
:10184C00012202230392002202A920460293049251
:10185C000593FEF733FD06B010BD00BF001002402B
:10186C000008014008B50C480C4BDFF834E04FF48D
:10187C00804280E80840002302618360C3604361BA
:10188C008361C3610362FEF77FFF18B1BDE80840B6
:10189C0000F08AB808BD00BF50040020005400407E
:1018AC00801A060010B5044686B01022002102A84A
:1018BC0000F002FB2268114B9A421CD1104C02A979
:1018CC00A369104843F00803A361A36903F008035C
:1018DC000093009BC02302931223039303230593CD
:1018EC00FEF7ECFCE36943F40013E361E36903F4F2
:1018FC0000130193019B06B010BD00BF00540040C3
:10190C0000100240000C014000B591B028220021CB
:10191C0006A800F0D1FA1422002101A800F0CCFA9C
:10192C000223069301230A93102306A80B93FFF7B7
:10193C0091F900210F2301A80193029103910491C5
:10194C000591FFF7C5FB11B05DF804FB08B5FEF778
:10195C001BFCFFF7D9FFFFF753FF00F00BFAFFF763
:10196C0081FF0E4C00F006F90A21084600F04EF8F3
:10197C00012221460A4800F09BF81E210A2000F0A3
:10198C0045F801222146074800F092F800F0D0F803
:10199C00FFF714FFFFF7EAFEE4E700BF1800002092
:1019AC00862D00088C2D00087047704700284FF4D6
:1019BC00806214BFFF210021014800F07DBA00BFF6
:1019CC00460000207F2810B51AD83F2918D80D4B97
:1019DC001B7913B1B2FA82F25209CC08012A0A4BD4
:1019EC0001F0070100EBC41004D18A40195C0A43D2
:1019FC001A5410BD01228A40195C21EA02011954C3
:101A0C0010BD00BF4000002046000020014B188094
:101A1C0059807047400000202DE9F04F234D93462C
:101A2C002E880A7885B032447F2A82460C4639DCEF
:101A3C006B884A7801931A443F2A33DC0027A0F1C3
:101A4C00200303936278974206D3227816442E80A3
:101A5C00504605B0BDE8F08F4FF00008039B61685D
:101A6C0002FB037231F812300293019B03EB07095E
:101A7C001FFA89F92278904501D30137E2E7029BDE
:101A8C0006EB080003FA08F212F4004F0ABFBBFA87
:101A9C008BF25A465209494680B2FFF793FF08F180
:101AAC000108E7E74FF0000AD2E700BF4000002032
:101ABC0070B50D461646441E637843B1184632463F
:101ACC002946FFF7A9FF14F8013F9842F4D01846B5
:101ADC0070BD000030B5C3B08DF8081000214C1C4F
:101AEC00C9B299420AD30A220133009201469BB231
:101AFC0002AA0548FEF728FF43B030BD02AD0D44E5
:101B0C00515C69702146EAE7500400201FB50A2396
:101B1C008DF80C108DF80D2000930146022303AABA
:101B2C000248FEF711FF05B05DF804FB50040020DD
:101B3C0038B500240E4DA4F15002D2B20021782009
:101B4C00FFF7E4FF002278201146FFF7DFFF102299
:101B5C0000217820FFF7DAFF05EBC4128023402127
:101B6C0078200134FFF7B6FF082CE4D138BD00BF54
:101B7C004600002010B544F620630122782152481B
:101B8C00FEF7B8FF0446002840F09C800146AE22C8
:101B9C007820FFF7BBFF214620227820FFF7B6FF05
:101BAC00214610227820FFF7B1FF2146B022782081
:101BBC00FFF7ACFF2146C8227820FFF7A7FF22468B
:101BCC0021467820FFF7A2FF214610227820FFF74C
:101BDC009DFF214640227820FFF798FF2146812265
:101BEC007820FFF793FF2146FF227820FFF78EFF26
:101BFC002146A1227820FFF789FF2146A6227820D2
:101C0C00FFF784FF2146A8227820FFF77FFF2146AB
:101C1C003F227820FFF77AFF2146A4227820FFF795
:101C2C0075FF2146D3227820FFF770FF224621460C
:101C3C007820FFF76BFF2146D5227820FFF766FF4F
:101C4C002146F0227820FFF761FF2146D922782027
:101C5C00FFF75CFF214622227820FFF757FF214631
:101C6C00DA227820FFF752FF214612227820FFF764
:101C7C004DFF2146DB227820FFF748FF214620222A
:101C8C007820FFF743FF21468D227820FFF73EFF97
:101C9C00214614227820FFF739FF2146AF22782005
:101CAC00FFF734FF2E2221467820FFF72FFF204626
:101CBC00FFF77CFEFFF73CFF0120044B58711C80A2
:101CCC005C8010BD002010BD50040020400000209E
:101CDC000E4B82B09A6942F001029A619A6902F045
:101CEC0001020092009ADA6942F08052DA61DB69F3
:101CFC00074A03F080530193019B536823F0E06380
:101D0C0043F08063536002B0704700BF0010024084
:101D1C00000001407047FEE7FEE7FEE7FEE7704774
:101D2C0070477047FEF742BA0F4B1A6842F0010237
:101D3C001A6059680D4A0A405A601A6822F0847277
:101D4C0022F480321A601A6822F480221A605A68CF
:101D5C0022F4FE025A604FF41F029A604FF00062A8
:101D6C00034B9A60704700BF001002400000FFF860
:101D7C0000ED00E008B54FF4165E0A480A4B0C2241
:101D8C0080E80840002342618360C3600361836183
:101D9C00C361FFF7C7FB18B1BDE80840FFF704BEED
:101DAC0008BD00BFA40400200038014010B5044653
:101DBC0086B01022002102A800F07EF82268174B92
:101DCC009A4228D103F558439A6902A942F48042F9
:101DDC009A619A69124802F480420092009A9A69B8
:101DEC0042F004029A619B6903F004030193019B86
:101DFC004FF4007302930223039303230593FEF71E
:101E0C005DFA4FF480630293002302A90448039304
:101E1C000493FEF753FA06B010BD00BF0038014022
:101E2C0000080140002103E00B4B5B584350043188
:101E3C000A480B4B42189A42F6D30A4A02E0002396
:101E4C0042F8043B084B9A42F9D3FFF76DFF00F0C0
:101E5C000FF8FFF77BFD7047B82D0008000000203D
:101E6C002400002024000020E4040020FEE70000F1
:101E7C0070B500250C4E0D4CA41BA410A54209D125
:101E8C0000F02AF800250A4E0A4CA41BA410A54207
:101E9C0005D170BD56F8253098470135EEE756F858
:101EAC00253098470135F2E7B02D0008B02D000819
:101EBC00B02D0008B42D000803460244934200D113
:101ECC00704703F8011BF9E7034611F8012B03F8DF
:101EDC00012B002AF9D17047F8B500BFF8BC08BC3B
:101EEC009E467047F8B500BFF8BC08BC9E467047CC
:101EFC0002030405060708090A0B0C0D0E0F10103F
:101F0C002E2E2F447269766572732F53544D3332D3
:101F1C00463178785F48414C5F4472697665722F20
:101F2C005372632F73746D3332663178785F6861E6
:101F3C006C5F636F727465782E63002E2E2F447263
:101F4C0069766572732F53544D3332463178785F0E
:101F5C0048414C5F4472697665722F5372632F73DC
:101F6C00746D3332663178785F68616C5F67706965
:101F7C006F2E63002E2E2F447269766572732F5369
:101F8C00544D3332463178785F48414C5F44726926
:101F9C007665722F5372632F73746D33326631789A
:101FAC00785F68616C5F6932632E63002E2E2F445C
:101FBC007269766572732F53544D3332463178788B
:101FCC005F48414C5F4472697665722F5372632F80
:101FDC0073746D3332663178785F68616C5F7263ED
:101FEC00632E63002E2E2F447269766572732F5305
:101FFC00544D3332463178785F48414C5F447269B6
:10200C007665722F5372632F73746D333266317829
:10201C00785F68616C5F756172742E6300000000FC
:10202C0000000000000000000000000000000000A4
:10203C000000000000000000000000000000000094
:10204C0000000000000C000C000C000C000C000C3C
:10205C00000C000C000C000C000C0000000C000C20
:10206C000000000000000000001B001B001B001BF8
:10207C00001B000000000000000000000000000039
:10208C000000000000000000000000008019801912
:10209C0080198019C07FC07F80190033C07FC07F3A
:1020AC000033003300330033000000000000000058
:1020BC00001E003F807580650074003C001E000708
:1020CC008005806580658075003F001E000400045B
:1020DC0000000000007000D840D8C0D880D9007330
:1020EC000006000C801BC036C066C046C0068003CC
:1020FC000000000000000000001E003F0033003311
:10210C000033001E000CC03CC0668063806180639D
:10211C00C03E801C0000000000000000000C000C01
:10212C00000C000C000C000000000000000000007F
:10213C000000000000000000000000000000800013
:10214C0000010003000600060004000C000C000C4B
:10215C00000C000C000C000400060006000300013B
:10216C008000002000100018000C000C0004000679
:10217C00000600060006000600060004000C000C19
:10218C000018001000200000000C002D003F001E65
:10219C000033000000000000000000000000000000
:1021AC000000000000000000000000000000000023
:1021BC00000C000C000C000CC0FFC0FF000C000C4D
:1021CC00000C000C000000000000000000000000EB
:1021DC0000000000000000000000000000000000F3
:1021EC000000000000000000000C000C00040004C3
:1021FC0000080000000000000000000000000000CB
:10220C0000000000001E001E000000000000000086
:10221C0000000000000000000000000000000000B2
:10222C0000000000000000000000000000000000A2
:10223C00000C000C00000000000000000003000374
:10224C0000030006000600060006000C000C000C43
:10225C00000C00180018001800000000000000001E
:10226C00001E003F0033806180618061806D806D55
:10227C008061806180610033003F001E000000001F
:10228C00000000000006000E001E003600260006AE
:10229C000006000600060006000600060006000602
:1022AC000000000000000000001E003F80738061F1
:1022BC008061800100030006000C001800300060F3
:1022CC00807F807F0000000000000000001C003EAA
:1022DC00006300630003000E000E00038001800108
:1022EC0080618073003F001E0000000000000000B1
:1022FC000006000E000E001E001E001600360036F2
:10230C000066807F807F000600060006000000004B
:10231C0000000000007F007F006000600060006E25
:10232C00007F80638001800180618073003F001E0C
:10233C000000000000000000001E003F80338061A0
:10234C000060006E007F80738061806180618033EB
:10235C00003F001E0000000000000000807F807F16
:10236C0080010003000300060006000C000C000CAA
:10237C000008001800180018000000000000000001
:10238C00001E003F8063806180610021001E003FC1
:10239C008061806180618061003F001E0000000050
:1023AC0000000000001E003F0073806180618061AE
:1023BC008073803F801D800180610073003F001E90
:1023CC000000000000000000000000000000000001
:1023DC00000C000C000000000000000000000000D9
:1023EC00000C000C000000000000000000000000C9
:1023FC00000000000000000C000C000000000000B9
:10240C0000000000000C000C000400040008000098
:10241C0000000000000080008003000E0038006007
:10242C000038000E80038000000000000000000057
:10243C00000000000000000000000000807F807F92
:10244C0000000000807F807F000000000000000082
:10245C000000000000000000000000000000004030
:10246C000070001C000780010007001C0070004079
:10247C00000000000000000000000000001F803F72
:10248C00C071C060C000C00180030007000E000CCA
:10249C00000C0000000C000C00000000000000000C
:1024AC00001E003F803180718063806F806D806D75
:1024BC00806F806700600032003E001C000000004E
:1024CC0000000000000E000E001B001B001B001B78
:1024DC0080318031803F803F8031C060C060C060FF
:1024EC000000000000000000007C007E0063006320
:1024FC0000630063007E007E006380618061806306
:10250C00007F007E0000000000000000001E003F65
:10251C0080318061006000600060006000600060DD
:10252C0080618031003F001E0000000000000000B0
:10253C00007C007F006380638061806180618061CA
:10254C008061806100630063007E007C00000000FD
:10255C0000000000807F807F0060006000600060F1
:10256C00007F007F0060006000600060807F807FE3
:10257C000000000000000000807F807F0060006091
:10258C0000600060007F007F006000600060006001
:10259C00006000600000000000000000001E003F12
:1025AC0080318061006000600060806380638061C6
:1025BC0080618031803F001E0000000000000000A0
:1025CC00806180618061806180618061807F807FBB
:1025DC0080618061806180618061806100000000A9
:1025EC0000000000003F003F000C000C000C000C31
:1025FC00000C000C000C000C000C000C003F003F09
:10260C0000000000000000008001800180018001BA
:10261C008001800180018001800180618061807374
:10262C00003F001E0000000000000000C060806140
:10263C00006300660066006C0078007C0066006633
:10264C00006380618061C060000000000000000039
:10265C00006000600060006000600060006000606E
:10266C000060006000600060807F807F00000000E0
:10267C0000000000C071C071C07BC07AC06AC06A23
:10268C00C06EC064C060C060C060C060C060C0602C
:10269C00000000000000000080718071807980795A
:1026AC008079806D806D806D8065806780678067C4
:1026BC00806380630000000000000000001E003FEB
:1026CC0000338061806180618061806180618061A4
:1026DC0080610033003F001E00000000000000007D
:1026EC00007E007F80638061806180618063007FF9
:1026FC00007E006000600060006000600000000070
:10270C0000000000001E003F00338061806180618A
:10271C00806180618061806580670033803F401EEE
:10272C000000000000000000007E007F80638061DC
:10273C0080618063007F007E0066006300638061BF
:10274C008061C0600000000000000000000E001F4F
:10275C008031803100300038001E0007800380611A
:10276C0080618031003F001E00000000000000006E
:10277C00C0FFC0FF000C000C000C000C000C000C87
:10278C00000C000C000C000C000C000C00000000F5
:10279C0000000000806180618061806180618061E7
:1027AC00806180618061806180618073003F001E68
:1027BC000000000000000000C060C060C0608031FC
:1027CC0080318031001B001B001B001B000E000E13
:1027DC00000E00040000000000000000C0C0C0C0DB
:1027EC00C0C0C0C0C0C0C0CC804C804C805E805289
:1027FC008052807380618061000000000000000046
:10280C00C0C0806080610033003B001E000C000CD7
:10281C00001E001F003B80718061C0C000000000E2
:10282C0000000000C0C08061806100330033001ED6
:10283C00001E000C000C000C000C000C000C000C1A
:10284C000000000000000000803F803F800100037A
:10285C0000030006000C000C00180018003000608B
:10286C00807F807F000000000000000F000F000C34
:10287C00000C000C000C000C000C000C000C000CEC
:10288C00000C000C000C000C000C000F000F0000E2
:10289C00001800180018000C000C000C000C0006AE
:1028AC000006000600060003000300030000000001
:1028BC000000001E001E00060006000600060006B2
:1028CC0000060006000600060006000600060006CC
:1028DC000006001E001E0000000C000C001E001262
:1028EC0000330033806180610000000000000000B4
:1028FC0000000000000000000000000000000000CC
:10290C0000000000000000000000000000000000BB
:10291C0000000000000000000000E0FF00000000CC
:10292C0000380018000C000000000000000000003F
:10293C00000000000000000000000000000000008B
:10294C00000000000000000000000000001F803F9D
:10295C0080618001801F803F80618063807FC038F0
:10296C0000000000000000000060006000600060DB
:10297C00006E007F807380618061806180618073F4
:10298C00007F006E0000000000000000000000004E
:10299C0000000000001E003F80738061006000603A
:1029AC0080618073003F001E0000000000000000EA
:1029BC008001800180018001801D803F80738061D7
:1029CC008061806180618073803F801D0000000009
:1029DC00000000000000000000000000001E003F8E
:1029EC0000738061807F807F00608071003F001EDB
:1029FC000000000000000000C007C00F000C000C1D
:102A0C00807F807F000C000C000C000C000C000C74
:102A1C00000C000C00000000000000000000000092
:102A2C000000801D803F80738061806180618061C7
:102A3C008073803F801D80018063007F003E00001A
:102A4C000060006000600060006F807F80718061BA
:102A5C008061806180618061806180610000000024
:102A6C00000000000006000600000000003E003ED2
:102A7C00000600060006000600060006000600061A
:102A8C000000000000000006000600000000003EF0
:102A9C00003E0006000600060006000600060006C2
:102AAC00000600060046007E003C0000006000604E
:102ABC0000600060806100630066006C007C007642
:102ACC00006300638061C060000000000000000033
:102ADC00003E003E0006000600060006000600064A
:102AEC0000060006000600060006000600000000B6
:102AFC0000000000000000000000000080DDC0FFAE
:102B0C00C0CEC0CCC0CCC0CCC0CCC0CCC0CCC0CC57
:102B1C0000000000000000000000000000000000A9
:102B2C00006F807F807180618061806180618061D5
:102B3C0080618061000000000000000000000000C7
:102B4C0000000000001E003F807380618061806186
:102B5C0080618073003F001E000000000000000038
:102B6C00000000000000006E007F807380618061B7
:102B7C00806180618073007F006E00600060006087
:102B8C0000600000000000000000801D803F80738A
:102B9C0080618061806180618073803F801D8001D5
:102BAC008001800180010000000000000000000096
:102BBC000067803F003900300030003000300030BA
:102BCC000030003000000000000000000000000099
:102BDC0000000000001E803F80610060007F803F8D
:102BEC0080018061007F001E0000000000000000DA
:102BFC000000000800180018007F007F0018001863
:102C0C000018001800180018801F800F000000002A
:102C1C0000000000000000000000000080618061E6
:102C2C00806180618061806180618063807F803D94
:102C3C000000000000000000000000000000000088
:102C4C00C060803180318031001B001B001B000EE6
:102C5C00000E000600000000000000000000000054
:102C6C000000000080DD80DD80DD00550055005542
:102C7C000077007700220022000000000000000016
:102C8C000000000000000000806100330033001ED3
:102C9C00000C000C001E00330033806100000000AB
:102CAC0000000000000000000000806180618031A5
:102CBC0000330033001B001B001B000E000E000E27
:102CCC00001C007C007000000000000000000000F0
:102CDC00C07FC07F800100030006000C001800308C
:102CEC00C07FC07F0000000000008003800700064A
:102CFC000006000600060006000E001C001C000E5C
:102D0C000006000600060006000680078003000689
:102D1C000006000600060006000600060006000677
:102D2C000006000600060006000600060006000667
:102D3C0000060038003C000C000C000C000C000CD1
:102D4C00000E00070007000E000C000C000C000C1D
:102D5C00000C003C003800000000000000000000E7
:102D6C00000000008038807F004700000000000059
:102D7C000000000000000000000048454C4C4F00D3
:102D8C00574F524C4420212100000000000000004D
:102D9C0000010203040607080900000000010203F9
:042DAC00040000001F
:042DB00031010008E5
:042DB4000D01000805
:102DB80001000000100000004C4544206F66664C7E
:102DC8004544206F6E0000000B1200002A20000806
:042DD80000A24A0407
:0400000508001E31A0
:00000001FF
